:100000000C94A1040C94EA040C94EA040C94EA0401
:100010000C94EA040C94EA040C94EA040C94EA04A8
:100020000C94EA040C94EA040C946E3E0C94443F45
:100030000C94E4330C94EA040C94EA040C94EA045F
:100040000C94EA040C9424110C94EA040C94EA0431
:100050000C94EA040C944C340C94EA040C94EA04D6
:100060000C94EA040C94EA040C94EA040C94EA0458
:100070000C94EA040C94EA040C94EA040C94EA0448
:100080000C949F0C0C94EA040C94EA040C94EA047B
:100090000C94EA040C94EA047F0681068306850624
:1000A000870689068B068D06970699069B069D0690
:1000B0009F06A106A306A506A706B30637144E148D
:1000C000691461157616AD15E6152C16AD21B02113
:1000D000B321B621B921BC21BF21C221C521C8212C
:1000E000CB21CE21D121D429D429062A062A442A7B
:1000F000922B922B922B642A922B112B112B822B59
:10010000922B922B8B2B1E2B1E2B1E2B1E2B1E2B52
:100110001E2B1E2B1E2B1E2B1E2B1E2B1E2B1E2B97
:100120001E2B1E2B1E2B2F2B3D2B442B4B2B552BCD
:100130001D2C1D2C2F2C2F2C262C2F2C2F2C2F2C14
:100140001D2C1D2C2B2C2F2C2F2C2B2CB53FDC3FAA
:10015000CE40DC3FCE4028404B40CE40A140B04096
:1001600005A84CCDB2D44EB93836A9020C50B9917D
:100170008688083CA6AAAA2ABE000000803F076322
:100180004236B79BD8A71A39685618AEBAAB558C09
:100190001D3CB7CC5763BD6DEDFD753EF617723152
:1001A000BF000000803F08000000BE922449123EBC
:1001B000ABAAAA2ABECDCCCC4C3E00000080BEAB80
:1001C000AAAAAA3E00000000BF000000803F000075
:1001D000000000084178D3BB4387D1133D190E3C82
:1001E000C3BD4282AD2B3E68EC8276BED98FE1A9B9
:1001F0003E4C80EFFFBE01C4FF7F3F0000000000C7
:10020000350014001A000800150017001C00180023
:100210000C00120013002A002B0004001600070037
:1002200009000A000B000D000E000F00330034001F
:1002300029621D001B0006001900050011001000B6
:100240003600370038002872E000E300E20010506A
:1002500001544C002C00000013500254045346007B
:1002600035001E001F002000210022002300240072
:100270002500260027002A002B00540025025600E6
:10028000570036005000510052004F003700340034
:100290002962490000000000000000004A004E00F2
:1002A0004B004D0000002872E000E300E200010076
:1002B00001004C002C00000001000100010046007C
:1002C00035001E021F022002210222022302240204
:1002D00025022D0231002A002B002E0038002602B4
:1002E0002702560031022F0230022F003000340066
:1002F000296200000000000000003500000000003E
:100300000000000000002872E000E300E2000100AD
:1003100001004C002C00000001000100010046001B
:1003200035003A003B003C003D00800054005F0077
:100330006000610056002A002B003E003F00400094
:100340004100810055005C005D005E0057003400F4
:10035000296242004200430045007F0062005900CC
:100360005A005B0063002872E000E300E200010035
:1003700001004C002C0000000100010001004600BB
:10038000000000000000000000000000C35CC55C2D
:10039000C75CC95CCB5C00000000000000000000EE
:1003A00000000000C45CC65CC85CCA5CCC5C000099
:1003B000000000000000000000000000C25C00001F
:1003C000000000000000000000000000000001002C
:1003D000000000000000000000000000010000001C
:1003E00044454255473A20656E61626C65642E0A49
:1003F000000A002530313662003A2000253032589C
:10040000000A722F632030313233343536373839B1
:100410004142434445460A00617564696F20706C2F
:100420006179206E6F746520667265713D25642068
:10043000766F6C3D256400617564696F2073746F1D
:1004400070206E6F746520667265713D2564006171
:100450007564696F2073746F7020616C6C206E6FAF
:10046000746573007267625F6D61747269785F6949
:100470006E69745F64726976657273207267625F19
:100480006D61747269785F636F6E6669672E6D6FF8
:100490006465203D20302E205772697465206465A4
:1004A0006661756C742076616C75657320746F205D
:1004B000454550524F4D2E0A007267625F6D617460
:1004C0007269785F696E69745F6472697665727368
:1004D000206565636F6E666967206973206E6F744F
:1004E00020656E61626C65642E0A007267625F6DE2
:1004F00061747269785F636F6E6669672E73706589
:100500006564203D2025640A007267625F6D617436
:100510007269785F636F6E6669672E76616C203DE5
:100520002025640A007267625F6D61747269785F8A
:10053000636F6E6669672E736174203D2025640ABF
:10054000007267625F6D61747269785F636F6E6677
:1005500069672E687565203D2025640A0072676210
:100560005F6D61747269785F636F6E6669672E6D27
:100570006F6465203D2025640A007267625F6D61CB
:10058000747269785F636F6E6669672E656E61620B
:100590006C65203D2025640A007267625F6D61749E
:1005A0007269785F636F6E666967206570726F6DE0
:1005B0000A006565636F6E6669675F757064617474
:1005C000655F7267625F6D61747269785F646566AA
:1005D00061756C740A000000000000010101010156
:1005E00001010101020202020202020202030303EC
:1005F00003030303030404040404040505050505BB
:100600000606060606070707070808080809090975
:100610000A0A0A0A0B0B0B0C0C0C0D0D0D0E0E0F1B
:100620000F0F1010111111121213131414151516A7
:10063000161717181819191A1A1B1C1C1D1D1E1F16
:100640001F20202122222324252526272728292A66
:100650002B2B2C2D2E2F2F3031323334353636378D
:1006600038393A3B3C3D3E3F40414243444647488F
:10067000494A4B4C4D4F50515253555657585A5B5F
:100680005C5E5F606263646667696A6C6D6E707100
:1006900073747678797B7C7E8081838486888A8B6C
:1006A0008D8F91929496989A9B9D9FA1A3A5A7A99F
:1006B000ABADAFB1B3B5B7B9BBBDBFC1C4C6C8CA96
:1006C000CCCFD1D3D6D8DADCDFE1E4E6E8EBEDF04D
:1006D000F2F5F7FAFCFF0A002530325820006B656E
:1006E00079626F6172645F7265706F72743A200034
:1006F0000A0025303258006B6579626F6172645F61
:100700007365745F6C65643A200064656C5F6B654B
:10071000795F6269743A2063616E27742064656C46
:100720003A20253032580A006164645F6B65795F56
:100730006269743A2063616E2774206164643A20B0
:10074000253032580A004B6579626F6172642073FC
:10075000746172742E0A005B575D005B535D005B31
:10076000525D005B445D005B435D000403300000AC
:10077000001A0350006C0061006E0063006B0020E3
:10078000004C00690067006800740000000A034F15
:10079000004C004B0042000000040309040902BFA2
:1007A00000050100A0FA090400000103010100098D
:1007B00021110100012240000705810308000A09F8
:1007C0000401000103000000092111010001227150
:1007D000000705820320000A09040200020300004A
:1007E00000092111010001222200070583032000D6
:1007F0000107050303200001080B030201010000AB
:10080000090403000001010000092401000109009E
:10081000010409040400020103000007240100018F
:1008200041000624020101000624020202000924FC
:100830000301030102010009240302040101010074
:100840000905050240000500000525010101090513
:10085000840240000500000525010103120110017A
:1008600000000008EDFE6560010001020301063191
:10087000FF0974A1010975150026FF009520750870
:1008800081020976150026FF00952075089102C0A7
:1008900005010980A10185031601002603001A81C4
:1008A000002A8300751095018100C0050C0901A183
:1008B000018504160100269C021A01002A9C02757B
:1008C0001095018100C005010906A10185050507F4
:1008D00019E029E715002501950875018102050831
:1008E000190129059505750191029501750391017D
:1008F0000507190029EF1500250195F07501810202
:10090000C005010906A101050719E029E715002521
:100910000195087501810295017508810105081985
:100920000129059505750191029501750391010550
:1009300007190029FF150026FF009506750881009C
:10094000C00011241FBECFEFD0E2DEBFCDBF04B682
:1009500003FE27C08091BA099091BB09A091BC0900
:10096000B091BD098730904BA740B04BD1F41092A5
:10097000BA091092BB091092BC091092BD0914BEAD
:1009800084B7877F84BF0FB6F894A89580916000E4
:10099000886180936000109260000FBEE0E0F0EF8D
:1009A000099515E0A0E0B1E0E8E7FDE800E00BBF45
:1009B00002C007900D92AC39B107D9F729E0ACE934
:1009C000B5E001C01D92AA3BB207E1F70E94643B6B
:1009D0000C94BA460C940000FF93EF93E0919C05B1
:1009E000F0919D05309709F00995EF91FF910895D9
:1009F000FC018591803011F0EFDFFBCF0895FF27D8
:100A0000E0E230E247FF0CC0419597FF09C0EDE2FC
:100A10006095709580959095611D711D811D911D4A
:100A200027FF02C0219530E350E2AA27660F771F07
:100A3000881F991FAA1FA41710F0A41B63955A952D
:100A4000A9F7AA3008F0A95FA05DAF93F3956115EF
:100A500071058105910541F7ED3211F4EF93F3959E
:100A6000F21718F43F93F395FBCF8F91B5DFFA950A
:100A7000E1F70895E991F9918591803021F085326F
:100A800019F0AADFF9CF089520E0E8945591553286
:100A9000C1F3503311F4689455915A3348F45053CC
:100AA00090F3220F022E220F220F200D250FF4CFDC
:100AB0000EF4219589919991533619F3533729F101
:100AC000533559F1BC0188279927E8945C3621F405
:100AD0008991999168945591543639F446EF7EF096
:100AE00077FF0DC08FEF9FEF0AC055374AE039F00E
:100AF000583540E121F0523642E009F00895FF9365
:100B0000EF937DDFEF91FF91B7CFFF93EF93FC0160
:100B100081918030B9F360DFFBCFFF93EF9368DF03
:100B2000F1CFDF93CF93CDB7DEB72596A3DFCF917B
:100B3000DF910895569A5E9A0C94B20A0C94A90516
:100B40000C94B30A80E00E94E2190C94DB3381E03C
:100B5000089581E008950E94A732811102C00E9489
:100B60002A330E94B2110E94D5210C949A050E944A
:100B7000C2160E94312180919E05811102C00E94FF
:100B8000D31980919E0590E00196817099278093FA
:100B90009E050C94A00508950C94CB050C94CC05EF
:100BA0000895CF93DF930E940D2C0E9487160E9418
:100BB0001634EC0140E063E070E084E391E00E94D1
:100BC0002E110E94D005CE010E9422348A3F910549
:100BD00038F48FE99FE00197F1F700C00000F3CFF0
:100BE0000E942312DF91CF910C947234FF920F93E5
:100BF0001F93CF93DF938C01FC01C081D181809141
:100C00009C06811113C08281882349F0CE010E9485
:100C10004231F82E682FCE010E94E73004C0CE0189
:100C20000E941631F82EBE018F2D04C0CE010E9405
:100C30004231BE010E944108EC01B8010E949E05AC
:100C4000882309F413C2B801CE010E94540C8823F2
:100C500009F40CC2B801CE010E942517882309F4BB
:100C600005C2C93CFCE5DF0741F4F8018281882315
:100C700009F4FCC10E94EA22F9C1CA3C8CE5D807FC
:100C800008F021C1C23C9CE5D90741F4F8018281FA
:100C9000882309F4EBC10E941C22E8C1C33CECE5A7
:100CA000DE0708F0C5C0C531FCE5DF0708F096C0D7
:100CB000C2308CE5D80708F466C0F8018281882329
:100CC00009F46DC00E94A732811102C00E942A332C
:100CD0000E94BA3290E09093BF088093BE08FE0154
:100CE000E350FC45E231F10530F4E45BFF4F8091C5
:100CF000BE080C94AC458091BE0881603BC0826008
:100D000039C0846037C0886035C0806133C080627C
:100D100031C080642FC080682DC08460886080935B
:100D2000BE0840E064E070E084E091E019C08E7F8E
:100D300021C08D7F1FC08B7F1DC0877F1BC08F7E12
:100D400019C08F7D17C08F7B15C08F7713C08B7F25
:100D5000877F8093BE0840E062E070E084E291E02B
:100D60000E942E1109C087FB222720F991E09227CB
:100D700090FB87F98093BE088091BE080E94BE3226
:100D80000E940D2C73C1C1159CE5D90781F0C130BB
:100D9000DC45A9F081E08093A4058093A505C801F6
:100DA000DF91CF911F910F91FF900C94A705F8014F
:100DB0008281882309F45AC10E94D10557C1F801E4
:100DC0008281882309F452C1809120078160809339
:100DD000200780EE93E00E94F80448C1C631DC454C
:100DE000C9F60E94C231282FF80182814091520336
:100DF00050915303882379F02A7A91E009F490E026
:100E000090939F05911102C069E201C065E3CA0198
:100E10000E94B3330AC080919F05811102C069E22C
:100E200001C065E3CA010E94BE330E940E321EC19A
:100E3000C53C8CE5D80741F4F8018281882309F488
:100E400015C10E945E2212C1C63C9CE5D90700F57F
:100E5000C33CECE5DE0761F4F8018281882309F4E4
:100E600005C10E94C231827281F00E944422FEC0FC
:100E7000C43CDC4509F08ECFF8018281882309F457
:100E8000F5C00E94C231827281F30E942A22EEC014
:100E9000F8018281C73CFCE5DF0731F4882309F4BF
:100EA000E5C00E94BA22E2C0C83CDC4530F4882389
:100EB00009F4DCC00E948A22D9C0882309F4D6C074
:100EC0000E94D022D3C0C63DECE5DE07B0F5CE3C93
:100ED000FCE5DF0708F0CAC0CB3C8CE5D80741F43D
:100EE000F8018281882309F4C1C00E941A23BEC080
:100EF000CB3C9CE5D90740F4F8018281882309F4B2
:100F0000B5C00E940023B2C0CC3CECE5DE0741F442
:100F1000F8018281882309F4A9C00E942F23A6C06A
:100F2000CD3CDC4509F036CFF8018281882309F4F5
:100F30009DC081E00E94482399C0C93D8CE5D80737
:100F400059F5F8018281882361F01092A5050E946D
:100F500016349093A3058093A20580E20E94902905
:100F600085C08091A505882321F080E20E94972901
:100F70007DC08091A2059091A3050E942234883CF7
:100F8000910598F780E20E94972988E20E941A282A
:100F900088E20E9431296AC0CA3D9CE5D90708F061
:100FA00044C0C73DECE5DE0719F5F80182818823CE
:100FB00051F01092A4050E9416349093A1058093DD
:100FC000A00582E0CBCF8091A40581110FC0809154
:100FD000A0059091A1050E942234883C910530F42F
:100FE00086E20E941A2886E20E94312982E0BECF62
:100FF000C83DDC4509F0CECEF80182818111A5CF34
:101000008091A5058111B1CF8091A2059091A30592
:101010000E942234883C910508F0A7CF87E20E9405
:101020001A2887E20E943129A0CFCD3D8CE5D80750
:1010300041F4F80182818823C9F082E00E94FD3BDF
:1010400015C0CE3D9CE5D90739F4F801828188238B
:1010500069F00E942A330AC0CC3DDC4509F09ACEE3
:10106000F8018281882311F080E0E8CF80E0DF91F1
:10107000CF911F910F91FF90089580E090E0089527
:1010800008959CE0799FF001112490E3899FE00D81
:10109000F11D1124E60FF11DEE0FFF1FE050FE4F72
:1010A000859194910895880F991FFC01EF50FC4F92
:1010B000859194910895CF93DF930E9441080E94F7
:1010C000120AEC01811520E59207F0F5811530E454
:1010D000930708F024C1883E910500F5803E9105F4
:1010E00008F09CC1883A910570F4853A910508F0A2
:1010F0009FC08130910509F491C108F442C1049761
:1011000008F08CC13EC18F3B910508F49CC0803C27
:10111000910508F436C1805C9109F4C0811540E264
:10112000940758F4C11581E0D80708F077C1C03F93
:10113000D10508F426C1D06571C1811520E392075D
:1011400008F0E4C09F70DEC0811535E5930708F014
:1011500044C0811544E5940708F0F8C0C11582E544
:10116000D80708F5C11521E5D20708F0DBC08C2FA0
:10117000837021E030E002C0220F331F8A95E2F72E
:101180003C68CE0174E0969587957A95E1F7837077
:10119000382BCF70C695C69580E2C89FE001112418
:1011A000C22BD32B3BC12C2F26952695CE018370C5
:1011B0009927C115D34508F0BAC040E2249F900199
:1011C0001124C1E0D0E002C0CC0FDD1F8A95E2F708
:1011D0002C2B3D2BE901DC6821C1811549E59407E1
:1011E000A0F4C11588E5D80708F0B5C0C11526E5FB
:1011F000D20708F0C6C08C2F0E948F0A8F71C82FAB
:10120000D0E0DC2FCC27D06209C181153AE59307E5
:1012100008F4A6C090568115904208F0B2C08D2FF8
:101220008F710E948F0ADD27D0628F71D82BF6C094
:10123000853A910509F4A8C0863A910509F0A7C03E
:10124000C2E8D0E4EBC0883A910509F4A3C0893A1A
:10125000910509F4A2C08A3A910509F4A1C08B3A1C
:10126000910509F4A0C08C3A910509F49FC08B3B0D
:10127000910509F49EC08C3B910509F49DC08D3AFF
:10128000910509F49CC0803B910509F49BC08E3AFE
:10129000910509F49AC08F3A910509F499C0813BF0
:1012A000910509F498C0823B910509F497C0833BEE
:1012B000910509F496C0843B910509F495C0853BDE
:1012C000910509F494C0863B910509F493C0873BCE
:1012D000910509F492C0883B910509F491C0893BBE
:1012E000910509F490C08D3B910509F48FC08E3BA8
:1012F000910509F48EC08A3B910509F48DC0C0E0C8
:10130000D4E48CC00E945308EC0188C09927D3FF15
:1013100003C0EC01D86C82C0EC01D06C7FC0DF70E0
:10132000D06A7CC0DC2FCC27C16FD06A77C040E286
:10133000249F90011124C1E0D0E002C0CC0FDD1F3A
:101340008A95E2F7C22BD32BDA6868C0D82FCC2756
:10135000C46FD06A63C0DC2FCC27C06FD06A5EC078
:101360008F700E948F0A94E0D695C7959A95E1F701
:10137000CF70D0E0DC2FCC27D06A8F70806EC82B66
:101380004DC0C0E0D0E04AC0C1E8D0E447C0C3E8E7
:10139000D0E444C0C2EED4E441C0C9EED4E43EC0BF
:1013A000CAEED4E43BC0C5EBD4E438C0C6EBD4E409
:1013B00035C0C3EBD4E432C0C4EBD4E42FC0C7EBD8
:1013C000D4E42CC0CCECD4E429C0CDECD4E426C0C9
:1013D000C3E8D5E423C0CAE8D5E420C0C2E9D5E417
:1013E0001DC0C4E9D5E41AC0C1E2D6E417C0C3E207
:1013F000D6E414C0C4E2D6E411C0C5E2D6E40EC0FF
:10140000C6E2D6E40BC0C7E2D6E408C0CFE6D4E417
:1014100005C0C0E7D4E402C0CAE2D6E4CE01DF9141
:10142000CF9108958238910549F1B0F48133910547
:1014300009F458C048F48932910509F44EC08A3243
:10144000910509F454C008958533910509F440C00D
:101450008933910599F00895833E910529F138F477
:10146000803E910591F0823E9105A1F00895863E5F
:101470009105F9F0873E910531F108952091BE085C
:1014800020FD3AC021FD38C008958091BE0880FD3E
:1014900035C032C08091BE0882FF32C08091BE0844
:1014A00084FD30C083EE39C08091BE0882FD28C023
:1014B000F5CF8091BE0883FF27C08091BE0884FDD0
:1014C00021C087EE2AC08091BE0883FD1DC0F5CFE4
:1014D0008091BE0885FD1AC01BC08091BE0885FDA5
:1014E00017C014C08091BE0886FD14C015C080913D
:1014F000BE0886FD11C00EC080EE0FC089E30DC08E
:1015000082EE0BC080E009C086EE07C089E205C00C
:1015100085E303C08AE201C081E390E008959091E1
:10152000BE0892FF0DC0282F2871283019F4877F3C
:10153000846006C0282F2471243011F48B7F8860CA
:1015400093FF0DC0282F2871283119F4877E8461FC
:1015500006C0282F2471243111F48B7E886194FDFC
:10156000877E089508950895E2E2F5E041E050E0B5
:1015700024E02E0F9191A92FA295AF70B0E0919623
:101580003C9191979F70BA0102C0660F771F9A95A0
:10159000E2F7CB018095832391968C932E13EACFAB
:1015A000A6E1B5E041E050E02CE02A0F8D91E82F54
:1015B000E295EF70F0E031A18F70BA0102C0660FC2
:1015C000771F8A95E2F7CB01962F9095932391A3ED
:1015D00092A1892B82A32A13E9CF1092AF05109212
:1015E000AE051092A7051092A6051092B1051092B3
:1015F000B0051092A9051092A8051092B30510929B
:10160000B2051092AB051092AA051092B505109282
:10161000B4051092AD051092AC0584E00E94FA0B5F
:101620000C94AB054F925F927F928F929F92AF92F4
:10163000BF92CF92DF92EF92FF920F931F93CF93BF
:10164000DF9322E2422E25E0522EAEEAB5E020E002
:1016500001E010E05D018D909C90119711961C9215
:101660001E92E20189912E01E82FE295EF70F0E0E1
:1016700031A18F70A80102C0440F551F8A95E2F76F
:10168000CA01342B31A342A1382F3095432342A302
:1016900050EA5A95F1F796E1C92E95E0D92E40E02F
:1016A00050E0E60179906E01672D62956F7070E0F1
:1016B000EB01E8A06D917C911197F12CD72DDF7093
:1016C00002C0F594E794DA95E2F7E0FC08C07801EF
:1016D000042E02C0EE0CFF1C0A94E2F702C0E12CBB
:1016E000F12C6E297F2911967C936E934F5F5F4F8B
:1016F0004C305105B1F691A1392331A392A1892B28
:1017000082A3129681E0F5014081518184169506ED
:1017100009F480E0282BF5E0A63BBF0709F09ACF3B
:1017200044E066EA75E08EEA95E00E94FB0B0E94B9
:10173000B70581E0DF91CF911F910F91FF90EF905E
:10174000DF90CF90BF90AF909F908F907F905F90F1
:101750004F900895E82FF0E0EE0FFF1FEA55FA4F83
:10176000808191810895CF92DF92EF92FF920F9343
:101770001F93CF93DF9381E094E00E94F80486EA00
:10178000E82E85E0F82EC0E0D0E09CEFC92E93E073
:10179000D92E03EF13E0DF93CF93DF92CF920E9415
:1017A000910589EF93E00E94F804F70181919191EE
:1017B0007F010E948D329F938F931F930F930E94FE
:1017C000910581EF93E00E94F80421968DB79EB7B2
:1017D00008960FB6F8949EBF0FBE8DBFC430D105DA
:1017E000D1F6DF91CF911F910F91FF90EF90DF9095
:1017F000CF9008950895FF920F931F93CF93DF9397
:10180000F82E092F162FD72FC42F222349F081E05D
:101810008093B8050E9416349093B7058093B6055F
:101820008091B8058823D9F08091B6059091B705CD
:101830000E942234069798F0EF2DF02FA12FBD2F94
:1018400080E090E04C2F50E08417950734F421910C
:1018500031912D933D930196F7CF1092B805DF910A
:10186000CF911F910F91FF900895682F70E06554FC
:101870007109072E000C880B990B0E94224220E070
:1018800030E040E451E40E9478419B01AC0160E00B
:1018900070E080E090E40E94E54320E030E04CED11
:1018A00053E40E9478430895FB018D312CE59207A3
:1018B00031F482818823A1F10E94C6132FC08E319A
:1018C0002CE5920731F48281882351F10E94D613CE
:1018D00025C08F312CE5920741F48281882301F1E4
:1018E0000E94C2138111F2CFE7CF8A322CE5920712
:1018F00031F482818823A1F00E94EF1308C08B325B
:101900009C4571F48281882359F00E94F81340E0CD
:1019100064E070E08CE491E00E942E1180E0089574
:1019200081E008950E94350C4FE050E00C94341390
:101930000E94350C0C9474120C94231208951F927B
:101940000F920FB60F9211240BB60F924F925F9227
:101950006F927F928F929F92AF92BF92CF92DF92BF
:10196000EF92FF922F933F934F935F936F937F93E9
:101970008F939F93AF93BF93CF93DF93EF93FF9397
:101980008091CD05882309F4DAC2C0910F06D09169
:1019900010061C161D060CF0D2C2C130D10509F488
:1019A00033C120E030E0A9016091BC057091BD0514
:1019B0008091BE059091BF050E946E418111D5C0F6
:1019C0008091A4012297882309F4B4C0C090050631
:1019D000D0900606E0900706F090080620E030E080
:1019E000A901C701B6010E946E41882309F4A2C073
:1019F000FE01EE0FFF1FEE0FFF1FED51FA4F80802B
:101A00009180A280B380A5019401C701B6010E9414
:101A10006E4187FF31C0A501940160E070E08CED5C
:101A200093EC0E94784120E030E040E451E40E94D1
:101A3000784120E030E040E05FE30E9478439B0182
:101A4000AC0160E070E080E090E40E94E5439B011F
:101A5000AC01C501B4010E9478439B01AC01C701F0
:101A6000B6010E946E4187FF07C0A701960160E0A2
:101A700070E08CED93E439C0A5019401C701B60173
:101A80000E94734318160CF055C0A501940160E044
:101A900070E08CED93E40E94784120E030E040E477
:101AA00051E40E94784120E030E040E05FE30E9492
:101AB00078439B01AC0160E070E080E090E40E941C
:101AC000E5439B01AC01C501B4010E9478439B0131
:101AD000AC01C701B6010E94734318165CF5A7015B
:101AE000960160E070E08CED93EC0E94784120E07C
:101AF00030E040E451E40E94784120E030E040E0F2
:101B00005FE30E9478439B01AC0160E070E080E0FD
:101B100090E40E94E5439B01AC01C701B6010E941D
:101B200078436093050670930606809307069093AA
:101B3000080612C0CC0FDD1FCC0FDD1FCD51DA4FD0
:101B400088819981AA81BB818093050690930606BE
:101B5000A0930706B09308066091050670910606EB
:101B6000809107069091080603C060E070E0CB0109
:101B70002091B9053091BA052F3F4FEF340731F06E
:101B80002F5F3F4F3093BA052093B9050E9401148F
:101B90006B017C0120E034E244EF51E40E946E418D
:101BA00087FF08C0B6EFCB2EB8E2DB2EB4EFEB2EEA
:101BB000B1E4FB2E20E030E040E051E4C701B60183
:101BC0000E9478439B01AC0160E074E284E79BE4EF
:101BD0000E9478416B017C010E94F1417093870063
:101BE000609386002091A5013091A6014091A70144
:101BF0005091A801C701B6010E9478430E94F141AB
:101C000070938900609388004090BC055090BD059A
:101C10006090BE057090BF0520E030E0A901C301CF
:101C2000B2010E947343C0910F06D091100618169E
:101C30000CF065C0C230D1050CF452C080910D0685
:101C400090910E06BE010E9498457C0190930E066D
:101C500080930D068090CF059090D005A090D1057F
:101C6000B090D20520E030E040E85FE3C501B40168
:101C70000E9402416093CF057093D0058093D105F7
:101C80009093D205F701EE0FFF1FEE0FFF1FED51EE
:101C9000FA4FA301920160817181828193810E9438
:101CA000784120E030E040E05EE30E9478439B0111
:101CB000AC01C501B4010E94734318168CF4C7012E
:101CC0000196BE010E94984590930E0680930D06E2
:101CD0001092CF051092D0051092D1051092D20526
:101CE000E0910D06F0910E06EE0FFF1FEE0FFF1FA5
:101CF000ED51FA4F6081718182819381D4C08091CE
:101D0000A401882309F4B4C0C0900906D0900A0643
:101D1000E0900B06F0900C0620E030E0A901C7012E
:101D2000B6010E946E41882309F4A2C0FE01EE0FA5
:101D3000FF1FEE0FFF1FE152FA4F80809180A280BB
:101D4000B380A5019401C701B6010E946E4187FFCF
:101D500031C0A501940160E070E08CED93EC0E942D
:101D6000784120E030E040E451E40E94784120E0F6
:101D700030E040E05FE30E9478439B01AC0160E00B
:101D800070E080E090E40E94E5439B01AC01C50156
:101D9000B4010E9478439B01AC01C701B6010E94C7
:101DA0006E4187FF07C0A701960160E070E08CEDEF
:101DB00093E439C0A5019401C701B6010E947343A1
:101DC00018160CF055C0A501940160E070E08CED90
:101DD00093E40E94784120E030E040E451E40E9426
:101DE000784120E030E040E05FE30E9478439B01CF
:101DF000AC0160E070E080E090E40E94E5439B016C
:101E0000AC01C501B4010E9478439B01AC01C7013C
:101E1000B6010E94734318165CF5A701960160E0B5
:101E200070E08CED93EC0E94784120E030E040E4DB
:101E300051E40E94784120E030E040E05FE30E94FE
:101E400078439B01AC0160E070E080E090E40E9488
:101E5000E5439B01AC01C701B6010E947843609342
:101E6000090670930A0680930B0690930C0613C024
:101E7000FE01EE0FFF1FEE0FFF1FE152FA4F8081B0
:101E80009181A281B3818093090690930A06A09361
:101E90000B06B0930C066091090670910A068091BA
:101EA0000B0690910C062091B9053091BA052F3F91
:101EB0004FEF340731F02F5F3F4F3093BA05209337
:101EC000B9050E9401146B017C0120E034E244EF6B
:101ED00051E40E946E4187FF08C046EFC42E48E2DD
:101EE000D42E44EFE42E41E4F42E20E030E040E034
:101EF00051E4C701B6010E9478439B01AC0160E048
:101F000074E284E79BE40E9478416B017C010E94AB
:101F1000F14170939700609396002091A501309154
:101F2000A6014091A7015091A801C701B6010E94E6
:101F300078430E94F14170939900609398008091DA
:101F4000CE05882309F457C1C090C905D090CA05B1
:101F5000E090CB05F090CC0520E030E0A901C7016E
:101F6000B6010E9473431816D4F58091B90590917B
:101F7000BA058F3F2FEF920729F001969093BA058B
:101F80008093B905C701B6010E94011420E030E03A
:101F900040E051E40E9478439B01AC0160E074E2B0
:101FA00084E79BE40E9478416B017C010E94F1412F
:101FB00070939700609396002091A5013091A6013F
:101FC0004091A7015091A801C701B6010E94784332
:101FD0000E94F141709399006093980008C010929C
:101FE00097001092960010929900109298006091BC
:101FF000C3057091C4056F5F7F4F7093C4056093F4
:10200000C305209196003091970080E090E0232B4B
:1020100071F12091C20521112AC0C0919600D09182
:1020200097000E9420426B017C01BE0180E090E09D
:102030000E9420429B01AC016091C5057091C605CC
:102040008091C7059091C8050E94784120E03FEF3C
:102050004FE757E40E94784320E030E040E85FE338
:102060000E9401419B01AC01C701B6010AC00E9458
:1020700020422091C5053091C6054091C705509179
:10208000C8050E94734387FDB6C08091C00590913A
:10209000C10501969093C1058093C0052091480722
:1020A0003091490782179307B0F080914F0788233A
:1020B00029F01092C1051092C0050DC080917100E9
:1020C0008D7F80937100809190008F73809390003A
:1020D0001092CE0598C02091C2058091C0059091C4
:1020E000C105E0914A07F0914B0721113FC021E063
:1020F0002093C2059C01215031093093C1052093E2
:10210000C00533E0880F991F3A95E1F7E80FF91FF2
:10211000DF011897CD90DD90ED90FC90208131810A
:1021200042815381C701B6010E946E41811109C0ED
:102130001092C9051092CA051092CB051092CC05D9
:1021400008C0C092C905D092CA05E092CB05F092B2
:10215000CC0580E090E0A0E8BFE38093C5059093B4
:10216000C605A093C705B093C80541C01092C2052B
:102170001092BA051092B90523E0880F991F2A958D
:10218000E1F7E80FF91F80819181A281B3818093EB
:10219000C9059093CA05A093CB05B093CC0520E068
:1021A00030E040E85EE364817581868197810E941A
:1021B00078436B017C018091A901682F70E080E079
:1021C00090E00E94204220E030E048EC52E40E947F
:1021D00078419B01AC01C701B6010E94784360932E
:1021E000C5057093C6058093C7059093C8051092E6
:1021F000C4051092C30580914C0780FD04C0109265
:10220000CE051092CD05FF91EF91DF91CF91BF9157
:10221000AF919F918F917F916F915F914F913F917E
:102220002F91FF90EF90DF90CF90BF90AF909F9055
:102230008F907F906F905F904F900F900BBE0F909C
:102240000FBE0F901F9018951F920F920FB60F920E
:1022500011240F900FBE0F901F901895CF92DF9210
:10226000EF92FF92CF93DF93EC016B01F42E8091FC
:10227000BB05811102C00E94B21180914C0780FF02
:102280006AC0809171008D7F8093710080916F0092
:102290008D7F80936F008091CD0581110E94231264
:1022A00081E08093CE05D0934B07C0934A07D0922C
:1022B0004907C0924807F0924F071092CF0510923D
:1022C000D0051092D1051092D2051092C10510923E
:1022D000C00588819981AA81BB818093C9059093AB
:1022E000CA05A093CB05B093CC0520E030E040E8D0
:1022F0005EE36C817D818E819F810E9478436B01BA
:102300007C018091A901682F70E080E090E00E943C
:10231000204220E030E048EC52E40E9478419B01EA
:10232000AC01C701B6010E9478436093C505709364
:10233000C6058093C7059093C8051092C4051092F6
:10234000C30580917100826080937100809190003C
:10235000806880939000DF91CF91FF90EF90DF90A5
:10236000CF9008950F931F93CF93DF930E94A732CE
:10237000811102C00E942A330E94C33280934C070D
:102380008091BB0581114BC03E9A809171008D7F79
:1023900080937100259A80916F008D7F80936F00EC
:1023A00002E0009390001AE110939100C1ECD1E19A
:1023B000D0939700C093960023EA3BE04EE855E4A3
:1023C0006091A5017091A6018091A7019091A8014B
:1023D0000E9478430E94F1417093990060939800A5
:1023E0000093800010938100D0938700C0938600F3
:1023F00023EA3BE04EE855E46091A5017091A60107
:102400008091A7019091A8010E9478430E94F14118
:10241000709389006093880081E08093BB05809170
:102420004C0780FF0BC040E063E070E08CE891E077
:10243000DF91CF911F910F910C942E11DF91CF91CD
:102440001F910F9108958091200780FF08C08FE4AD
:1024500094E09F938F930E9491050F900F9080912D
:10246000BB05811102C00E94B21110921006109299
:102470000F06809171008D7F809371008091900094
:102480008F738093900080916F008D7F80936F0099
:10249000809180008F73809380001092CE051092FF
:1024A000CD051092090610920A0610920B061092A2
:1024B0000C0610920506109206061092070610925E
:1024C00008061092040610920306E3EEF5E0A3ED71
:1024D000B5E011921192119211921D921D9286E017
:1024E000E330F807B1F70895CF92DF92EF92FF92B1
:1024F0000F931F93CF93DF936B017C018091200793
:1025000080FF10C0C701B6010E94EA417F936F931C
:1025100087E394E09F938F930E9491050F900F9013
:102520000F900F908091CD05882309F494C080917D
:10253000BB05811102C00E94B21103E016E0C7E0A2
:10254000D0E0A7019601F801929182917291629177
:102550008F010E946E41811131C0FE01EE0FFF1FFD
:10256000EE0FFF1FED51FA4F10821182128213827B
:10257000DE01AA0FBB1FAD52BA4F11961C921E92DC
:10258000C730D105E9F02196448155816681778174
:10259000408351836283738314821582168217826B
:1025A00012968D919C91139711969C938E931396EE
:1025B0001C921E92129734961296E2CF219708F63B
:1025C00080910F0690911006019797FD05C090939A
:1025D000100680930F0604C01092100610920F068A
:1025E00080910F069091100620910D0630910E06F5
:1025F0002817390724F010920E0610920D06892B29
:1026000051F5809171008D7F8093710080919000D1
:102610008F738093900080916F008D7F80936F0007
:10262000809180008F738093800010920906109231
:102630000A0610920B0610920C06109205061092D4
:1026400006061092070610920806109204061092D1
:1026500003061092CD05DF91CF911F910F91FF904E
:10266000EF90DF90CF900895CF92DF92EF92FF929C
:10267000CF93DF936B017C01D42FC52F809120076E
:1026800080FF14C05F934F93C701B6010E94EA41D7
:102690007F936F9388E194E09F938F930E949105BD
:1026A0000F900F900F900F900F900F908091BB059F
:1026B000811102C00E94B21180914C0780FF5BC063
:1026C00080910F069091100608970CF054C08091ED
:1026D00071008D7F8093710080916F008D7F80935A
:1026E0006F008091CE0581110E94231281E08093BA
:1026F000CD051092BA051092B90520E030E0A9018D
:10270000C701B6010E9473431816DCF480910F06CE
:1027100090911006FC01EE0FFF1FEE0FFF1FED5111
:10272000FA4FC082D182E282F382FC01EE0FFF1FDA
:10273000ED52FA4FD083C183019690931006809397
:102740000F068091710082608093710080919000EB
:1027500080688093900080910F06909110060297F8
:1027600054F080916F00826080936F0080918000B0
:10277000806880938000DF91CF91FF90EF90DF9091
:10278000CF90089580914C078170089580914C07F7
:10279000816080934C070E94C7320E949E0C40E0EB
:1027A00062E070E08CE791E00C942E1140E062E072
:1027B00070E08CE691E00E942E112FEF81EE94E004
:1027C000215080409040E1F700C000000E94231299
:1027D00080914C078E7F80934C070C94C732809178
:1027E000110690E00196877099278093110608954D
:1027F0008091110690E007968770992780931106C3
:1028000008958F929F92AF92BF92CF92DF92EF92F4
:10281000FF92CF93DF936B017C01C091B905D091FA
:10282000BA05BE0180E090E00E9420424B015C01AD
:10283000A701960160E070E08CE594E40E94784185
:102840009B01AC01C501B4010E9478430E94F14193
:102850009B01E09111068E2E912C48E08416910484
:1028600008F044C2F401E25AFF4F0C94AC451092B8
:10287000A40180E090E0A0E0BFE38093A5019093E5
:10288000A601A093A701B093A8011092BC051092D5
:10289000BD051092BE051092BF0528C21092A4017A
:1028A0001092BC051092BD051092BE051092BF0596
:1028B0006431710528F46A30710508F449C104C017
:1028C000693C710508F044C180E090E0A0E8BEE3F7
:1028D00073C01092A4011092BC051092BD05109215
:1028E000BE051092BF0520E030E040EA52E4C70187
:1028F000B6010E946E4187FDF9C120E030E040E260
:1029000053E4C701B6010E946E4187FF2FC00E94A9
:10291000004668E270E00E949845BC01645C7F4F0D
:10292000072E000C880B990B0E9422426B017C0140
:102930008091B9059091BA058B309105C8F1853128
:10294000910508F080C165E170E0681B790B80E0BB
:1029500090E00E94204220E030E040E05FE30E94EF
:10296000784320E030E040E251E4A8C020E030E0CD
:1029700040EA53E4C701B6010E946E4187FF2CC0B4
:102980000E94004668EE73E00E949845BC016851C1
:102990007C4F072E000C880B990B0E9422426B0182
:1029A0007C018091B9059091BA058630910568F453
:1029B00080E090E0A0E0BFE38093A5019093A601A2
:1029C000A093A701B093A80191C18531910508F0AA
:1029D0003AC165E170E062C020E030E040E254E4DA
:1029E000C701B6010E946E4187FF2FC00E940046BA
:1029F00060ED77E00E949845BC016854744F072E43
:102A0000000C880B990B0E9422426B017C01809183
:102A1000B9059091BA058031910550F28531910543
:102A200008F011C165E170E0681B790B80E090E06F
:102A30000E94204220E030E040E05FE30E947843C3
:102A400020E030E040EA50E439C020E030E040EAE5
:102A500054E4C701B6010E946E4187FF47C10E943E
:102A6000004660ED77E00E949845BC016854744FC1
:102A7000072E000C880B990B0E9422426B017C01EF
:102A80008091B9059091BA058432910508F490CFF0
:102A90008333910508F0D7C063E370E0681B790BBE
:102AA00080E090E00E94204220E030E040E05FE3E0
:102AB0000E94784320E030E040E751E40E947841F2
:102AC0007CC041E04093A4011092BC051092BD056A
:102AD0001092BE051092BF056431710540F46A3052
:102AE000710560F520E030E040E85EE32BC0693C12
:102AF000710508F0A8C080E090E00E94204220E02C
:102B000030E040EA51E40E94014120E030E044E33B
:102B100053E40E9478419B01AC010E94784320E07D
:102B200030E040E05EE30E9478439B01AC0160E04E
:102B300070E080E09EE30E9401413FC020E030E071
:102B400040E05FE3C701B6010E9478436B017C015E
:102B500080E090E0A0E0BEE32FCF21E02093A4012D
:102B60001092BC051092BD051092BE051092BF05D3
:102B70004AE0469F9001479F300D1124C90168EB40
:102B80007BE00E948445BC016C5D754077FF03C00B
:102B9000719561957109072E000C880B990B0E94A5
:102BA00022422EE333EC4EE259E30E94784320E0C8
:102BB00030E040EC5EE30E9402416093A501709317
:102BC000A6018093A7019093A80190C081E0809313
:102BD000A4011092BC051092BD051092BE05109282
:102BE000BF05CE0183709927892BE1F0BE0161708A
:102BF000772780E090E00E94204220E030E040E033
:102C00005EE30E94784320E030E040E45FE30E940E
:102C100002416093A5017093A6018093A701909350
:102C2000A8010CC080E090E0A0E0BFE38093A50184
:102C30009093A601A093A701B093A801C770DD27C8
:102C4000CD2B09F053C01092A5011092A60110924D
:102C5000A7011092A8014AC041E04093A40110923C
:102C6000BC051092BD051092BE051092BF05812CC7
:102C7000912CA12C9FE3B92E8092A5019092A601E0
:102C8000A092A701B092A8012739310578F180E020
:102C900090E00E94204220E030E047E153E40E94AF
:102CA000014120E030E04AE754E40E94784120E00E
:102CB00030E048E452E40E94784320E030E040EA0B
:102CC00051E40E9468420E94EA41660F771F660F36
:102CD000771FFB01EA5DFA4F2081318142815381E8
:102CE000C701B6010E9478436B017C01C701B601A0
:102CF000DF91CF91FF90EF90DF90CF90BF90AF909A
:102D00009F908F90089580EC98E00C94D33680913A
:102D10002A0681110C949C0C089521E08F3F9105A7
:102D200008F020E0822F08950C948D160E948716DB
:102D300010922A0640E068E070E08AE292E00C948B
:102D40002E111092290640E068E070E08AEA91E0D6
:102D50000C942E110E94871620914C0330E02F5FB7
:102D60003F4F2370332720934C0348E2429FC0011A
:102D7000439F900D112440E065E070E086559D4F23
:102D80000C942E11CF9380912606882309F441C01C
:102D90008091120690911306009781F40E941634D8
:102DA00090931306809312062091140630E02115AB
:102DB000310571F48091150690E00BC00E94223419
:102DC00020914A0330914B032817390738F321C06B
:102DD000C9010197FC01EA5EF94F8081F901EA5EC1
:102DE000F94FC08190912A0691110E94980C809110
:102DF0002A06882319F08C2F0E94920C80911406C9
:102E000090E001966091150670E00E9498458093CD
:102E10001406CF910895089581E080932A0640E03A
:102E200068E070E08AE692E00E942E110C940B1785
:102E3000089581E08093290640E068E070E08AEE22
:102E400091E00E942E110C941817EF92FF921F939D
:102E5000CF93DF93CDB7DEB7A3970FB6F894DEBF5D
:102E60000FBECDBF7C0186322CE5920741F4FB01F9
:102E70008281882309F448C00E940C17A2C08732BF
:102E8000FCE59F0739F4FB0182818823E9F10E9468
:102E9000961697C08832FCE59F0749F4FB018281B2
:102EA000882391F180912A068111F1CFE5CF8C32F0
:102EB000FCE59F0739F4FB018281882329F10E94F8
:102EC00019177FC08D32FCE59F0739F4FB01828121
:102ED0008823D1F00E94A11674C08E32FCE59F07B2
:102EE00049F4FB018281882379F0809129068111C0
:102EF000F1CFE5CF89329C4539F4FB0182818823EB
:102F000019F00E94AA165DC040912A06411105C021
:102F100080912906882309F4D1C0FB0152815523F1
:102F200009F451C0F0EEEF16F10461F40E94871627
:102F300081E08093280610922706109226061092B0
:102F400015063FC022EEE216F10471F40E948716C6
:102F500080912806882319F081E08093270610923B
:102F60002806109226062DC033EEE316F10491F4E4
:102F700080912706882339F10E948716109228062F
:102F800081E0809326061092140610921306109288
:102F9000120617C082E5E816F10431F480914A0365
:102FA00090914B030A9709C0E1E5EE16F10459F43C
:102FB00080914A0390914B030A9690934B03809320
:102FC0004A0380E07CC080914C0310914F03811133
:102FD00008C0FB012081120F135080914D03180F80
:102FE00043C0813091F4FB012081120F105E2091CB
:102FF0004D03120F818124E030E0281B3109822F1C
:10300000880F880F280F120F38C0823071F4FB012F
:103010002081120F105E90914D03190F218184E0E1
:1030200090E0821B9109F7E025C0833031F583E2FF
:10303000EBE6F3E0DE01119601900D928A95E1F73F
:103040001350FB01808121E030E02C0F3D1F280F41
:10305000311DC90120914D0330914E03FC01E20F57
:10306000F31F2081120FFB01218184E090E0821B7D
:103070009109FCE08F9F100D11245523A1F04423EA
:1030800019F0812F0E94920C80912806882381F0EC
:1030900080911506E82FF0E0EA5EF94F10838F5F0C
:1030A0008093150605C0442319F0812F0E94980CC7
:1030B000C7010E94941691E0892701C081E0A39680
:1030C0000FB6F894DEBF0FBECDBFDF91CF911F9139
:1030D000FF90EF900895CF92DF92EF92FF920F93BF
:1030E0001F93CF93DF93E82FF82F711103C0682F40
:1030F000782F7EC0062F10E0C72FD0E0E82EF12CED
:10310000C8016BE270E00E9484459B0145ED4203DB
:10311000B001439F700D1124060F171F86E0809F9A
:10312000B001819F700D11244FEF50E0CA018C1B3C
:103130009D0B8E9DD0018F9DB00D9E9DB00D1124D5
:103140008B2F6C9F80016D9F100D7C9F100D1124A3
:10315000012F11276A01C01AD10ACE9C8001CF9C91
:10316000100DDE9C100D11246A01C61AD70ACC9EE0
:10317000B001CD9E700DDC9E700D1124672F772756
:10318000461B570B4E9DE0014F9DD00D5E9DD00D0F
:1031900011247D2F2230310599F04CF42115310591
:1031A000C9F021303105A1F47E2FE12F13C0233067
:1031B000310551F02430310559F4ED2F7B2F06C035
:1031C000EB2F8D2F7F2F06C0712FEB2F8F2F02C07B
:1031D0007B2F812FF0E0EA52FA4F6491E72FF0E065
:1031E000EA52FA4F7491E82FF0E0EA52FA4F8491D4
:1031F000DF91CF911F910F91FF90EF90DF90CF90D3
:10320000089588E090E00C941746AB01BC0188E07B
:1032100090E00C9435468091200780FF08C082EB37
:1032200095E09F938F930E9491050F900F908FE0F0
:1032300080935007109251078FEF8093520780932D
:103240005307109254076091500770915107809175
:103250005207909153070C9405198091200780FF25
:1032600008C089E995E09F938F930E9491050F9084
:103270000F908091200780FF0FC0809150078170D0
:103280001F928F938AE795E09F938F930E949105F9
:103290000F900F900F900F908091200780FF10C02B
:1032A0008091500786958F731F928F938DE595E0DF
:1032B0009F938F930E9491050F900F900F900F9006
:1032C0008091200780FF19C080915007881F8827B0
:1032D000881F90915107292F220F822B97FB992746
:1032E00090F99F938F9381E495E09F938F930E9431
:1032F00091050F900F900F900F908091200780FF05
:103300000EC0809152071F928F9385E295E09F93A4
:103310008F930E9491050F900F900F900F908091C6
:10332000200780FF0EC0809153071F928F9389E082
:1033300095E09F938F930E9491050F900F900F90AF
:103340000F908091200780FF0EC0809154071F923C
:103350008F938BEE94E09F938F930E9491050F9033
:103360000F900F900F900895CF93DF93F901108283
:10337000AEE8B3E090E02C91322F32953F702F7081
:1033800082130AC0631308C02081EA01C20FD11D55
:10339000988320812F5F20839F5F1496913359F784
:1033A000DF91CF910895E0917C05F0917D0509941E
:1033B000E0917805F09179050994E0917A05F09112
:1033C0007B05099480936606089540E060E080E004
:1033D0000C94DD19E0E5F7E06081862F881F8827CF
:1033E000881F60915107660F682B728183810E944C
:1033F0006B18962F672F482F892F0C94DD19AF92E9
:10340000BF92CF92DF92EF92FF920F931F93CF93D1
:10341000DF9360915007862F881F8827881F60914F
:103420005107660F682B70915207809153070E94D5
:103430006B18F62EE72ED82E90915007991F9927DA
:10344000991F30915107832F880FE82FE92B37FB05
:10345000FF27F0F9CF018C549F4F68E671E00E947E
:10346000984570915207682F809153070E946B18FE
:10347000C62EB72EA82E0EE813E0C0E0D0E0F8016B
:10348000838190819F3F61F080FF04C02A2D4B2DE6
:103490006C2D03C02D2D4E2D6F2DCE010E94D819FD
:1034A00021960C5F1F4FC133D10549F7DF91CF91B2
:1034B0001F910F91FF90EF90DF90CF90BF90AF9052
:1034C0000895DF92EF92FF920F931F93CF93DF93B4
:1034D00080915007881F8827881F90915107492F96
:1034E000440F242F282B97FB332730F9C9018C5424
:1034F0009F4F68E671E00E949845821B930B8038CD
:10350000910514F09A9505C081384FEF94070CF49B
:10351000939597FD03969595879595958795C82FD3
:1035200080915207281B310937FF02C02D5F3F4FA2
:103530003595279535952795D22FD090530790E94B
:10354000E92E93E0F92E00E010E0F70120812295AA
:103550002F7060915007962F991F9927991F60919E
:103560005107660F692B2C9F600D11247091520733
:103570002D9F700D11248D2D0E946B18472F282F21
:10358000C8010E94D8190F5F1F4FF4E0EF0EF11C25
:1035900001331105D1F6DF91CF911F910F91FF906B
:1035A000EF90DF900895AF92BF92CF92DF92EF92AB
:1035B000FF920F931F93CF93DF931F92CDB7DEB788
:1035C000D82E20915007221F2227221F80915107B9
:1035D000982F990FB22EB92A87FB882780F9EB2DF7
:1035E000F82FCF018C549F4F68E671E00E949845F8
:1035F0009C012E1B3F0B37FF02C02D5F3F4F3595BF
:10360000279535952795A22EC09052070091620606
:1036100010916306209164063091650690915407DD
:10362000992359F0692F70E08AE090E00E94984554
:10363000CB01770FAA0BBB0B04C08AE090E0A0E09F
:10364000B0E080239123A223B323892B8A2B8B2BD9
:1036500041F40E94004661E370E00E949845082F03
:1036600001C00FEFE12CF12C10E0D11003C0E016E7
:10367000F106A9F40E94004683706B2D8A9D600DAF
:10368000112469830E94004669817C2D8091530733
:103690000E946B18472F282FC7010E94D8198FEF5F
:1036A000E81AF80A81E3E816F104F9F60F90DF91C1
:1036B000CF911F910F91FF90EF90DF90CF90BF902F
:1036C000AF900895CF92DF92EF92FF921F93CF9326
:1036D000DF938091620690916306A0916406B09199
:1036E00065060090540704C0880F991FAA1FBB1FCE
:1036F0000A94D2F7182F8EE8C82E83E0D82EC0E0A7
:10370000D0E09FE3E92EF12CF60180818F3FE1F0BC
:10371000FE01EB5AF84F8081F4E08F9FC001112425
:103720008034910524F4B701681B790B02C060E076
:1037300070E0610F7FEF809153070E946B18472F55
:10374000282FCE010E94D819219624E0C20ED11C48
:10375000C133D105C9F6DF91CF911F91FF90EF9052
:10376000DF90CF900895CF92DF92EF92FF920F9368
:103770001F93CF93DF938091620690916306A0918F
:103780006406B09165060090540704C0880F991F25
:10379000AA1FBB1F0A94D2F7D82EC09053070EE879
:1037A00013E0C0E0D0E08FE3E82EF12CF801808137
:1037B0008F3FF9F0FE01EB5AF84F2081F4E02F9F84
:1037C00090011124203431052CF4C701821B930B86
:1037D0009C0102C020E030E0F80161816D0D620FB4
:1037E0007FEF8C2D0E946B18472F282FCE010E944F
:1037F000D81921960C5F1F4FC133D105B9F6DF915F
:10380000CF911F910F91FF90EF90DF90CF9008958F
:10381000CF92DF92EF92FF920F931F93CF93DF939C
:103820008091620690916306A0916406B09165064E
:103830000090540704C0880F991FAA1FBB1F0A9449
:10384000D2F7D82EC09053070EE813E0C0E0D0E0C6
:103850008FE3E82EF12CF80180818F3FF9F0FE0113
:10386000EB5AF84F2081F4E02F9F9001112420346F
:1038700031052CF4C701821B930B9C0102C020E090
:1038800030E0F80162816D0D620F7FEF8C2D0E9498
:103890006B18472F282FCE010E94D81921960C5F54
:1038A0001F4FC133D105B9F6DF91CF911F910F9111
:1038B000FF90EF90DF90CF9008952F923F924F921C
:1038C0005F926F927F928F929F92AF92BF92CF92B0
:1038D000DF92EF92FF920F931F93CF93DF9330907D
:1038E00052072090530760916206709163068091A1
:1038F0006406909165060E9420422BED3FE049E46A
:1039000050E40E94784320E030E040E05CE30E9415
:1039100078436B017C010E94734120E030E040E07D
:103920005DE30E9478432B013C01C701B6010E9470
:10393000354420E030E040EE52E40E9478414B01F3
:103940005C01C0E9D3E000E010E0688170E080E055
:1039500090E00E94224220E030E040E052E40E94E9
:103960000141A30192010E9478436B017C01FE0199
:103970003197608170E080E090E00E94224220E078
:1039800030E040EE52E40E940141A50194010E9402
:1039900078439B01AC01C701B6010E94024120E0BF
:1039A00030E044E353E40E9478436B017C01809152
:1039B0005007881F8827881F90915107292F220FB1
:1039C000622F682B97FB772770F9072E000C880B66
:1039D000990B0E9422429B01AC01C701B6010E94D3
:1039E00002410E94F141732D822D0E946B18472FD6
:1039F000282FC8010E94D8190F5F1F4F249601334A
:103A0000110509F0A2CFDF91CF911F910F91FF9087
:103A1000EF90DF90CF90BF90AF909F908F907F906E
:103A20006F905F904F903F902F9008952F923F920C
:103A30004F925F926F927F928F929F92AF92BF92BE
:103A4000CF92DF92EF92FF920F931F93CF93DF936A
:103A5000CDB7DEB728970FB6F894DEBF0FBECDBF47
:103A6000809152078D83909153079E8360916206E7
:103A70007091630680916406909165060E942042D1
:103A80002BED3FE049E450E40E94784320E030E031
:103A900040E05CE30E9478436B017C010E9473412B
:103AA0002B013C01C701B6010E94354469837A832A
:103AB0008B839C83E0E9F3E0F887EF8300E010E07C
:103AC000EF81F88531972080EF81F885B0803090C4
:103AD0005407332079F0632D70E080E090E00E947D
:103AE000224220E030E040EC5FE30E9478436B012B
:103AF0007C0106C0C12CD12C90ECE92E9FE3F92E5D
:103B00006B2D70E080E090E00E94224220E030E0E7
:103B100040E052E40E9401419B01AC01C701B601A3
:103B20000E947843A30192010E9478434B015C01FB
:103B3000332079F0632D70E080E090E00E94224213
:103B400020E030E040EC5FE30E9478436B017C01B1
:103B500006C0C12CD12C80ECE82E8FE3F82E622D0C
:103B600070E080E090E00E94224220E030E040EEF1
:103B700052E40E9401419B01AC01C701B6010E94C1
:103B8000784329813A814B815C810E9478439B0173
:103B9000AC01C501B4010E9402416B017C0180911E
:103BA0005007881F8827881F90915107292F220FBF
:103BB000622F682B97FB772770F9072E000C880B74
:103BC000990B0E9422429B01AC01C701B6010E94E1
:103BD00002410E94F1417D818E810E946B18472F26
:103BE000282FC8010E94D8190F5F1F4F8F81988519
:103BF000049698878F830133110509F061CF2896C9
:103C00000FB6F894DEBF0FBECDBFDF91CF911F91ED
:103C10000F91FF90EF90DF90CF90BF90AF909F906B
:103C20008F907F906F905F904F903F902F9008956E
:103C30002F923F924F925F926F927F928F929F92BC
:103C4000AF92BF92CF92DF92EF92FF920F931F93AA
:103C5000CF93DF9300D000D01F92CDB7DEB7209175
:103C600052072A83809153078B836091620670917B
:103C7000630680916406909165060E9420422BEDB8
:103C80003FE049E450E40E94784320E030E040E027
:103C90005CE30E9478436B017C010E9473412B011D
:103CA0003C01C701B6010E9435444B015C01A0E90B
:103CB000B3E0BD83AC8300E010E0EC81FD8131977F
:103CC000B081B983EC81FD8130802090540722209F
:103CD00069F0622D70E0660F771F072E000C880BCD
:103CE000990B0E9422426B017C0105C0C12CD12C92
:103CF000E12C20E4F22E632D70E080E090E00E9441
:103D0000224220E030E040E052E40E9401419B0169
:103D1000AC01C701B6010E947843A30192010E9441
:103D200078436B017C01222021F0312C220C331CC2
:103D300003C082E0282E312CF9816F2F70E080E0E3
:103D400090E00E94224220E030E040EE52E40E94E7
:103D500001410E94EA419B0177FF04C022273327DB
:103D6000261B370B82E490E0821B930B289EB00148
:103D7000299E700D389E700D1124072E000C880BA3
:103D8000990B0E942242A50194010E9478439B0155
:103D9000AC01C701B6010E9402416B017C01809118
:103DA0005007881F8827881F90915107292F220FBD
:103DB000622F682B97FB772770F9072E000C880B72
:103DC000990B0E9422429B01AC01C701B6010E94DF
:103DD00002410E94F1417A818B810E946B18472F2A
:103DE000282FC8010E94D8190F5F1F4F8C819D8119
:103DF00004969D838C830133110509F05ECF0F90EB
:103E00000F900F900F900F90DF91CF911F910F9116
:103E1000FF90EF90DF90CF90BF90AF909F908F90EA
:103E20007F906F905F904F903F902F9008952F92CA
:103E30003F924F925F926F927F928F929F92AF923A
:103E4000BF92CF92DF92EF92FF920F931F93CF9387
:103E5000DF9300D01F92CDB7DEB72090520780913C
:103E600053078983609162067091630680916406AE
:103E7000909165060E94204220E030E040E85BE33C
:103E80000E94784320E030E040E653E40E9478430B
:103E90002B013C01E0E9F3E0FB83EA8300E010E062
:103EA000EA81FB8131973080EA81FB81E080F090EC
:103EB0005407FF2079F06F2D70E080E090E00E94C1
:103EC000224220E030E040EC5FE30E9478434B0167
:103ED0005C0106C0812C912C90ECA92E9FE3B92E99
:103EE0006E2D70E080E090E00E94224220E030E001
:103EF00040E052E40E9401410E94EA419B0177FFA9
:103F000004C022273327261B370BB901330F880B38
:103F1000990B0E9422429B01AC01C501B4010E9491
:103F200078432EE23DEB4BEB53EB0E9478434B0181
:103F30005C01FF2079F06F2D70E080E090E00E943E
:103F4000224220E030E040EC5FE30E9478436B01C6
:103F50007C0106C0C12CD12C80ECE82E8FE3F82E1A
:103F6000632D70E080E090E00E942242A301920164
:103F70000E9401419B01AC01C701B6010E94784338
:103F80009B01AC01C501B4010E9401416B017C01A0
:103F900080915007881F8827881F90915107292FEB
:103FA000220F622F682B97FB772770F9072E000CE2
:103FB000880B990B0E9422429B01AC01C701B601FC
:103FC0000E9402410E94F141722D89810E946B186A
:103FD000472F282FC8010E94D8190F5F1F4F8A81D1
:103FE0009B8104969B838A830133110509F058CF86
:103FF0000F900F900F90DF91CF911F910F91FF9035
:10400000EF90DF90CF90BF90AF909F908F907F9078
:104010006F905F904F903F902F900895CF92DF92D6
:10402000FF920F931F93CF93DF931F92CDB7DEB70D
:10403000F82E00916206109163062091640630917B
:10404000650690915407992359F0692F70E08AE032
:1040500090E00E949845AB01770F660B770B04C088
:104060004AE050E060E070E0402351236223732374
:10407000452B462B472B39F40E94004661E370E044
:104080000E94984501C08FEF00E010E0C82ED12CAF
:10409000F11003C00C151D0581F40E9400468983B0
:1040A0000E940046782F6981809153070E946B1807
:1040B000472F282FC8010E94D8190F5F1F4F0133C7
:1040C000110531F70F90DF91CF911F910F91FF9064
:1040D000DF90CF9008956F927F928F929F92AF92D0
:1040E000BF92CF92DF92EF92FF920F931F93CF93E5
:1040F000DF9300D0CDB7DEB7882371F040E060E0F9
:1041000080E00E94DD1980E3EDE2F6E0DF011D9220
:104110008A95E9F710922C068DE2E82E86E0F82EBB
:10412000812C77247A9490EDC92ED12C20EC622E2C
:104130003FE2A32EB12C8701912C91100CC08091ED
:104140002C06811108C00E940046853595401CF45C
:10415000F701708206C0D8018C9181508E3F08F41F
:104160008C939E012F5F3F4FAE014E5F5F4F682DD6
:10417000892D0E94B419F80121918F01EA81213D16
:1041800070F030E0205D3109629EC001639E900DA9
:104190001124B5010E948445262F4FEF0AC0FFEF7E
:1041A0002F9FC0011124B6010E948445462F20E0B4
:1041B00060E08E2F90E00E94D819939424E0921230
:1041C000BCCF839434E0E30EF11C8CE08812B3CFB3
:1041D00080912C068F5F8D3158F110922C0680E073
:1041E00090E003E010E04EEFF801E81BF90BDF016F
:1041F000A35DB94F7D01A0E3B6E0682F611104C053
:104200002C912F3F09F44C93F70152915F3F19F421
:104210004083F7015083F4E0EF0EF11C149626E082
:10422000A036B20759F7019683309105E9F602C02E
:1042300080932C060F900F90DF91CF911F910F91DB
:10424000FF90EF90DF90CF90BF90AF909F908F90B6
:104250007F906F900895089508950E942B210C94EB
:104260002C214091500740FD0AC00E94E5190E9490
:104270002D21809150078170809351030895809182
:104280002B06843120F48F5F80932B060895809154
:10429000620690916306A0916406B091650601964E
:1042A000A11DB11D8093620690936306A0936406DE
:1042B000B093650680915E0690915F06A0916006BE
:1042C000B09161068F3F2FEF9207A207B20759F016
:1042D0000196A11DB11D80935E0690935F06A09389
:1042E0006006B093610680915D06E5E5F7E0908198
:1042F0009F3F61F09E3F41F4282F30E0223031058E
:1043000014F0815001C080E09F5F9083319697E068
:10431000E638F90761F780935D06E42FE695EF73C1
:1043200080915003E81307C081E0909151039130D0
:1043300019F480E001C081E08170E093500391E0C6
:10434000909351034E2F50E0FA013197ED30F10573
:1043500050F5EA59FF4F0C94AC450E94EA1923C06E
:104360000E94FF1920C00E945D1C1DC00E94611A9E
:104370001AC00E94D31A17C00E94621B14C00E9468
:10438000B31B11C00E94081C0EC00E94161D0BC05A
:104390000E94181E08C00E94171F05C00E940E2010
:1043A00002C00E946B200C942D21E0917605F091C3
:1043B00077050995E5E5F7E08FEF819397E0E6381B
:1043C000F907D9F70E94A732811110C08091200708
:1043D00080FF08C089EB94E09F938F930E94910522
:1043E0000F900F900E942A330E940B190E9401190E
:1043F000609350077093510780935207909353072F
:104400006E77C1F48091200780FF08C084E694E0B5
:104410009F938F930E9491050F900F900E940B190C
:104420000E940119609350077093510780935207BF
:10443000909353070C942D19E0E5F7E08081982FB5
:10444000909590FB80F98083608171818281938156
:104450000C94051990915007892F86958F5F8F7363
:1044600091788E3018F4880F892B02C0892F8260D2
:1044700080935007609150077091510780915207C7
:10448000909153070C94051990915007892F8695A8
:10449000815C8F739178882319F0880F892B02C073
:1044A000892F8A618093500760915007709151075E
:1044B00080915207909153070C94051980915007F1
:1044C000982F991F9927991F80915107880F892B41
:1044D00090E008968F3F910519F014F08FEF90E06F
:1044E0002091500780FB27F920935007282F26950D
:1044F000809151078078822B90FB87F98093510738
:104500006091500770915107809152079091530725
:104510000C94051980915007982F991F9927991F7E
:1045200080915107880F892B90E0089797FF02C070
:1045300080E090E08F3F910519F014F08FEF90E04C
:104540002091500780FB27F920935007282F2695AC
:10455000809151078078822B90FB87F980935107D7
:1045600060915007709151078091520790915307C5
:104570000C9405198091520790E008968F3F9105A1
:1045800019F014F08FEF90E080935207609150077C
:104590007091510780915207909153070C9405191F
:1045A0008091520790E0089797FF02C080E090E06A
:1045B0008F3F910519F014F08FEF90E08093520730
:1045C0006091500770915107809152079091530765
:1045D0000C9405198091530790E008968F3F910540
:1045E00019F014F08FEF90E080935307609150071B
:1045F0007091510780915207909153070C940519BF
:104600008091530790E0089797FF02C080E090E008
:104610008F3F910519F014F08FEF90E080935307CE
:104620006091500770915107809152079091530704
:104630000C9405198091540790E0019684309105FF
:1046400014F083E090E080935407609150077091DC
:10465000510780915207909153070C94051980914E
:10466000540790E0019797FF02C080E090E084300B
:10467000910514F083E090E0809354076091500717
:104680007091510780915207909153070C9405192E
:10469000E0E5F7E08F73982F990F80818178892B5F
:1046A000808360817181828193810C94051966E712
:1046B00084E70C942C25CF930E946B2584E70E94FD
:1046C000B12386E70E94B123C0E021E041E061E030
:1046D0008C2F0E944324CF5FC133B9F766E784E78C
:1046E000CF910C943F25E6EAF8E06083418324E60D
:1046F00030E042E050E0BF01880F0C941C26EF929E
:10470000FF921F93CF93DF937B01182F110FC0E00F
:10471000D0E08C2F8C5D8093A60820E030E0F9017A
:10472000EC0FFD1FEE0DFF1D8081F901EA55F74FDB
:1047300081832F5F3F4F2031310589F724E630E038
:1047400041E150E066EA78E0812F0E941C266096E5
:10475000C039D105F1F6DF91CF911F91FF90EF9015
:104760000895CF93DF93C82F4BE06DEF0E94732322
:1047700040E06AE08C2F0E9473238FE39CE901974D
:10478000F1F700C0000040E060E08C2F0E9473232E
:1047900040E061E08C2F0E94732340E066E08C2FA4
:1047A0000E94732340E06DEF8C2F0E947323D0E0B2
:1047B00040E06D2F8C2F0E947323DF5FD231C1F751
:1047C00040E06D2F8C2F0E947323DF5FD432C1F73E
:1047D00040E06D2F8C2F0E947323DF5FD43BC1F725
:1047E0004BE06DEF8C2F0E94732341E06AE08C2F29
:1047F0000E94732340E06DEF8C2FDF91CF910C94DA
:1048000073238133910520F5880F991F880F991F15
:10481000FC01EE5AFB4F528133818081837071819C
:10482000E0E98E9FC00111248A57984FFC01E70FE1
:10483000F11DB4976083FC01E50FF11DB49740832F
:10484000830F911DFC01B497208381E080938C0637
:104850000895FF920F931F93CF93DF93182F062F86
:10486000F42EC0E0D0E02F2D402F612FCE010E940A
:1048700001242196C133D105B1F7DF91CF911F916A
:104880000F91FF9008954F925F927F928F929F9227
:10489000AF92BF92CF92DF92EF92FF920F931F934E
:1048A000CF93DF93362F54E0859FC0011124FC0184
:1048B000EE5AFB4FA081A3707A2E618170E0CB018C
:1048C00084978C0197FF02C0095F1F4FA3E01595E5
:1048D0000795AA95E1F7628170E07B0154E2E51A41
:1048E000F108E701F7FC279673E0D595C7957A950F
:1048F000E1F7638170E04B01E4E28E1A9108F40164
:1049000097FC37962F0153E0559447945A95E1F759
:1049100068E0A62EB12CB5010E9498456C01C70134
:10492000B5010E9498457C01C401B5010E949845DB
:10493000A72DB0E01127DD243323A1F032E13A9F07
:10494000B0013B9F700D1124060F171F0859194F16
:1049500061E070E001C0660FCA94EAF7F8013081A7
:10496000632B14C032E13A9FB0013B9F700D1124BC
:10497000060F171F0859194F61E070E001C0660F5C
:10498000CA94EAF76095F801308163236083DD27DC
:10499000FF2432E1442391F03A9FA0013B9F500D48
:1049A0001124C40FD51FC859D94F41E050E001C0B0
:1049B000440FEA94EAF73881432B12C03A9FA001D2
:1049C0003B9F500D1124C40FD51FC859D94F41E04A
:1049D00050E001C0440FEA94EAF740953881432340
:1049E0004883A2015527992792E19A9FF0019B9F46
:1049F000F00D1124E40FF51FE859F94F222361F05F
:104A000021E030E0A90102C0440F551F8A95E2F76A
:104A1000CA019081892B0CC021E030E0A90102C0BD
:104A2000440F551F8A95E2F7CA018095908189232A
:104A3000808381E080936706DF91CF911F910F9172
:104A4000FF90EF90DF90CF90BF90AF909F908F90AE
:104A50007F905F904F900895CF9390918C0699230B
:104A600051F0C62F66E877E00E947F2366E178E088
:104A70008C2F0E947F2310928C06CF910895EF9285
:104A8000FF920F931F93CF93DF9390916706992323
:104A9000D9F0162F082F88E6E82E86E0F82EC0E021
:104AA000D0E0F70141917F016C2F802F0E9473238A
:104AB000FE01E859F94F42896C2F812F0E94732320
:104AC0002196C231D10569F7DF91CF911F910F91E6
:104AD000FF90EF9008951092B9008CE08093B80099
:104AE0000895EF92FF920F931F93CF93DF93182FA8
:104AF000EB011092BC0084EA8093BC000E94163443
:104B00007C019091BC0097FD0EC0CF3F8FEFD8077E
:104B1000C1F30E9416348E199F098C179D0788F3E4
:104B20008EEF9FEF2EC09091B900987F983041F0A2
:104B30009091B900987F903119F08FEF9FEF21C0CD
:104B40001093BB0084E88093BC000E9416348C0153
:104B50009091BC0097FD0CC0CF3F8FEFD807C1F3F9
:104B60000E941634801B910B8C179D0788F3D8CFB9
:104B70008091B900887F883111F08034F1F680E0AF
:104B800090E0DF91CF911F910F91FF90EF900895EA
:104B90000F931F93CF93DF93EB018093BB0084E8C7
:104BA0008093BC000E9416348C019091BC0097FD4C
:104BB0000EC0CF3F8FEFD807C1F30E941634801B81
:104BC000910B8C179D0788F38EEF9FEF0CC02091FF
:104BD000B900287F81E090E0283211F480E090E075
:104BE000919581959109DF91CF911F910F91089532
:104BF0000F931F93CF93DF93EC0184E98093BC0064
:104C00000E9416348C019091BC0094FF0EC0CF3FDF
:104C10008FEFD807C1F30E941634801B910B8C17BD
:104C20009D0788F38EEF9FEF02C080E090E0DF9158
:104C3000CF911F910F910895CF92DF92EF92FF9243
:104C40000F931F93CF93DF936B017A018901B90111
:104C50000E947125FC01892BC9F4E601EC0CFD1CB6
:104C6000CE15DF0541F0B80189910E94C825FC01ED
:104C7000892BB1F30BC0C801DF91CF911F910F9128
:104C8000FF90EF90DF90CF900C94F825CF01DF914B
:104C9000CF911F910F91FF90EF90DF90CF900895EB
:104CA00090939206809391060895E0919106F09179
:104CB0009206309721F00190F081E02D099480E078
:104CC0000895EF92FF921F93CF93DF93FC01A09181
:104CD0009106B0919206109709F442C080916A0340
:104CE000882341F08091BE0887FF04C080818183C2
:104CF00085E08083EF011296ED91FC911397CE0130
:104D000009958091200782FF2BC080FF04C08EEDA3
:104D100096E00E94F80418E088EDE82E86E0F82E70
:104D20008091200780FF0BC088811F928F93FF9294
:104D3000EF920E9491050F900F900F900F901150DD
:104D400021961111EDCF8091200780FF09C086EDDB
:104D500096E0DF91CF911F91FF90EF900C94F804B3
:104D6000DF91CF911F91FF90EF90089520918F06D2
:104D7000309190068217930771F09093900680937C
:104D80008F06E0919106F0919206309721F006800F
:104D9000F781E02D0994089520918D0630918E06BB
:104DA0008217930771F090938E0680938D06E091A1
:104DB0009106F0919206309721F00084F185E02D64
:104DC0000994089585B7806885BF85B7806885BFD9
:104DD0000895089508950C94EA2608950C94ED26FC
:104DE0000E94E2260E94E9260C94EB2681E00895B9
:104DF0000E940D340E94B40A0E9496340C94EE2650
:104E0000CF93C82F8091200782FF1EC080FF04C06F
:104E100087EF96E00E94F8048091200780FF0CC085
:104E20001F92CF9382EF96E09F938F930E949105FC
:104E30000F900F900F900F908091200780FF04C07B
:104E400080EF96E00E94F8048C2FCF910C94CE0551
:104E50004F925F927F928F929F92AF92BF92CF922A
:104E6000DF92EF92FF920F931F93CF93DF93CDB713
:104E7000DEB72A970FB6F894DEBF0FBECDBF0E94F3
:104E8000120B0E94F626811111C08FEF89838A834D
:104E90001B820E9416348160782F9D838C83498108
:104EA0005A816B818D810E94E62757C094E9C92EF3
:104EB00096E0D92E00E010E0AA24A394B12C702E25
:104EC000802F0E94AA0B4C01F601419051906F0176
:104ED000482659264114510431F40F5F1F4F043006
:104EE000110569F7D2CF8091200781FD0E94B30B95
:104EF00020E030E07501022E02C0EE0CFF1C0A9487
:104F0000E2F7C70184219521892B09F12E837F8245
:104F10008E209F2091E0892809F490E098870E94D4
:104F200016348160782F9A8789874E815F816885E2
:104F30008A850E94E627000F111FF801EC56F94FF1
:104F400080819181E826F926F182E08206C02F5FF8
:104F50003F4F2C30310571F6C0CF0E94831610915F
:104F600093060E9455261817D9F00E945526809363
:104F700093062A960FB6F894DEBF0FBECDBFDF9121
:104F8000CF911F910F91FF90EF90DF90CF90BF9046
:104F9000AF909F908F907F905F904F900C940027E0
:104FA0002A960FB6F894DEBF0FBECDBFDF91CF912A
:104FB0001F910F91FF90EF90DF90CF90BF90AF9037
:104FC0009F908F907F905F904F900895CF93DF9345
:104FD000CDB7DEB72B970FB6F894DEBF0FBECDBFAF
:104FE0004F83588769877A878B87DE01119686E021
:104FF000FD0111928A95E9F785E0FE01379601904F
:105000000D928A95E1F749815A816B817C818D816E
:105010009E810E94B72E2B960FB6F894DEBF0FBE6E
:10502000CDBFDF91CF910895FC01808191810E94D5
:1050300083310895882309F413C1682F8238C1F49D
:105040000E94552681FD0CC169E380915203909125
:1050500053030E94B3330E940E322FEF81EE94E08F
:10506000215080409040E1F700C0000069E319C082
:105070008338F9F40E94552680FDF2C063E58091E3
:105080005203909153030E94B3330E940E322FEFCC
:1050900081EE94E0215080409040E1F700C0000094
:1050A00063E580915203909153030E94BE330C94A8
:1050B0000E328438C1F40E94552682FDD1C067E4C7
:1050C00080915203909153030E94B3330E940E3299
:1050D0002FEF81EE94E0215080409040E1F700C036
:1050E000000067E4DECF8CEF860F813A38F48091C0
:1050F0005203909153030E94B333D9CF80E2860FBD
:10510000883048F4677081E001C0880F6A95EAF73B
:105110000E94C531CCCF8BE5860F833070F4653AA1
:1051200029F0663A31F083E890E005C081E890E02C
:1051300002C082E890E00C94B62688E5860F87319D
:1051400008F08EC0683A09F445C0693A09F445C0D0
:105150006A3A09F445C06B3A09F445C06C3A09F45F
:1051600045C06B3B09F445C06C3B09F445C06D3A42
:1051700009F445C0603B09F445C06E3A09F445C0E6
:105180006F3A09F445C0613B09F445C0623B09F43C
:1051900045C0633B09F445C0643B09F445C0653B29
:1051A00009F445C0663B09F445C0673B09F445C0B6
:1051B000683B09F445C0693B09F445C06D3B09F4FF
:1051C00045C06E3B09F445C06A3B09F445C080E028
:1051D00090E044C082EE90E041C089EE90E03EC095
:1051E0008AEE90E03BC085EB90E038C086EB90E023
:1051F00035C083EB90E032C084EB90E02FC087EBAA
:1052000090E02CC08CEC90E029C08DEC90E026C0A2
:1052100083E891E023C08AE891E020C082E991E030
:105220001DC084E991E01AC081E292E017C083E2D8
:1052300092E014C084E292E011C085E292E00EC0D8
:1052400086E292E00BC087E292E008C08FE690E031
:1052500005C080E790E002C08AE292E00C94CC2680
:105260000895882309F45BC0682F823879F40E947E
:10527000552681FF54C069E38091520390915303F6
:105280000E94B3330E940E3269E310C08338B1F438
:105290000E94552680FF43C063E5809152039091A0
:1052A00053030E94B3330E940E3263E58091520390
:1052B000909153030E94BE330C940E32843879F4DB
:1052C0000E94552682FF2BC067E480915203909183
:1052D00053030E94B3330E940E3267E4E7CF8CEF92
:1052E000860F813A18F380E2860F883048F46770A1
:1052F00081E001C0880F6A95EAF70E94CB31DCCFCC
:105300008BE5860F833020F480E090E00C94B62685
:10531000685A673120F480E090E00C94CC26089520
:10532000882321F00E94C5310C940E320895882301
:1053300021F00E94CB310C940E3208954F925F926F
:105340006F927F92BF92CF92DF92EF92FF920F9374
:105350001F93CF93DF937C01D62FC72FFC010581CC
:1053600002950F70128111110E94E2310E94BB312F
:10537000882379F0112369F080E28D0F883048F09E
:1053800082E00E9459320E94BB3191E0B82EB926CA
:1053900001C0B12CCC2EC2948FE0C822D12CF601D2
:1053A000ED58FF4F0C94AC458C2F807FCF70882335
:1053B00011F0C295C07F112399F0CC2309F48DC15F
:1053C00080E28D0F883010F0D11104C08C2F0E9424
:1053D000C53103C08C2F0E94D5310E940E327DC191
:1053E0008D2F0E943129CC2309F49CC180E28D0FBE
:1053F000883010F0D11104C08C2F0E94CB3103C033
:105400008C2F0E94DB310E940E328CC18C2F807F4A
:10541000CF70803211F0C295C07FDD2319F0D130FA
:10542000C9F022C0112371F0002341F0013031F4A2
:105430000E94F5318C2B0E94FB3174C10E94F53122
:105440008C2B04C1002319F0013009F46BC10E94B8
:10545000043218C0112321F0063008F063C10EC0D9
:10546000053008F05FC10EC0112351F0002331F068
:10547000F701858180FF31C18F7085838C2FE6C055
:1054800001113CC18C2FE8C08C2F869586958370C6
:1054900090E0009719F0019761F044C1112321F0C9
:1054A0008D2F9C2F937002C080E090E00E94B62662
:1054B00049C1112321F08D2F9C2F937002C080E0F1
:1054C00090E00E94CC263EC18C2F837009F050C022
:1054D000111134C18D2F829586958770880F880FA2
:1054E0009D2F9F70492E512C612C712C082E04C0C9
:1054F000440C551C661C771C0A94D2F7D4FF14C0C8
:105500000FE010E020E030E0B901A80104C0440F32
:10551000551F661F771F8A95D2F7CB01BA01609598
:1055200070958095909503C060E070E0CB01C695C2
:10553000C695C370D0E0C230D10561F0C330D1054B
:1055400081F06429752986299729219771F00E9495
:10555000FC2FF4C064297529862997290E940E30F2
:10556000EDC00E94FC2FC301B2010E94EA2FE6C0E9
:10557000112319F08C2F817001C08695882309F4BE
:10558000DDC08D2F829586958770880F880F9D2F9F
:105590009F70492E512C612C712C082E04C0440C94
:1055A000551C661C771C0A94D2F7D4FF14C00FE078
:1055B00010E020E030E0B901A80104C0440F551FFD
:1055C000661F771F8A95D2F7CB01BA016095709557
:1055D0008095909503C060E070E0CB01C695C695BC
:1055E000C3704C2F50E04230510569F043305105F3
:1055F00089F064297529862997294130510571F070
:105600000E94C2309BC064297529862997290E946F
:10561000D43094C00E94C230C301B2010E94B030A5
:105620008DC08D2F90E0FC01E05EF109E531F105C0
:1056300008F04FC0ED57FF4F0C94AC45DF708C2F36
:105640008F71112331F00E9449308D2F0E949029D3
:1056500069C00E946A308D2F0E94972963C0112370
:1056600041F0053008F05EC08C2F8F710E948F30A2
:1056700059C0063008F056C0F7CF112339F08C2FEF
:105680008F710E9449304EC01123C9F38C2F8F7146
:105690000E946A3047C0112329F08C2F8F710E941D
:1056A000343040C00E942F303DC0112349F0CF71EB
:1056B0008C2F0E94493063E08C2F0E94443232C00C
:1056C00081E00E945932023068F182E00E94593232
:1056D00029C0112331F0002391F28D2F0E941A2846
:1056E00021C0002399F2D93349F45FEF67EE73E0EC
:1056F000515060407040E1F700C000008D2F0E94C3
:10570000312910C04C2F4F706D2FC7010E943D08EA
:105710000E945B2F17C04C2F4F706D2FC7010E9446
:10572000400810C088E0C816D10441F05CF0EAE0FF
:10573000CE1AD108F2E0CF16D10420F40E945526EB
:105740000E94CE05BB20F1F00E94B73180FD1AC047
:10575000F70112820E94B1310E944930C7010E94B4
:10576000D02B0E94B131DF91CF911F910F91FF900B
:10577000EF90DF90CF90BF907F906F905F904F90B1
:105780000C946A30DF91CF911F910F91FF90EF90B1
:10579000DF90CF90BF907F906F905F904F90089573
:1057A0000F931F93CF93DF93EC01888199812B8115
:1057B0003C81232BB9F09F3F11F48F3F99F0CE012C
:1057C0000E94F605882371F0688179818A810E94A0
:1057D0008E318C010E94E6300E94E72FB801CE0185
:1057E0000E949E29DF91CF911F910F9108950E94F1
:1057F000E2310E94F2310E940E3280E090E00E947D
:10580000B62680E090E00C94CC26809152039091D3
:1058100053030E94C9330C94F72B0E94D2310C948D
:10582000052CE92FE295EF70F0E03297EE30F105AC
:10583000B0F4E856FF4F0C94AC45803F91F018F45B
:10584000803E68F40EC0843F51F40BC0803E48F0A7
:10585000813F29F406C093FB882780F9089580E0F2
:10586000089581E008950E9483310E94112C0895CB
:10587000CF93DF9300D000D01F92CDB7DEB70F904B
:105880000F900F900F900F90DF91CF910895CF93CD
:10589000DF9300D000D000D0CDB7DEB726960FB68C
:1058A000F894DEBF0FBECDBFDF91CF9108951F9357
:1058B000CF93DF93C0919D0616E080919E06C81796
:1058C00099F0D0E01C9FF0011D9FF00D1124E156CE
:1058D000F94F4081518162817381848195810E9459
:1058E000472C2196C770E9CFDF91CF911F91089582
:1058F0004091CF065091D0066091D1067091D206AA
:105900008091D3069091D4060C94472C8091D406B4
:1059100082958F7009F054C08091D106882309F4D4
:105920004FC080919D06A0919E066091CF06709118
:10593000D0064091D2065091D306B6E08A1709F4FA
:105940003FC090E041155105C1F17F3F11F46F3F19
:10595000A1F1B89FF001B99FF00D1124E156F94F64
:10596000218172132AC02081621327C02281211154
:1059700024C0238134812417350710F421503109C4
:10598000241B350B283C3105C0F42091D4062F7020
:1059900020612093D40626E0289FF001299FF00D76
:1059A0001124EC55F94F80818F70806180838FECDA
:1059B00096E00E94D02B0C94572C01968770BECF96
:1059C0000895CF92DF92EF92FF920F931F93CF93A0
:1059D000DF93CDB7DEB762970FB6F894DEBF0FBE88
:1059E000CDBF8C0185E0F801DE011D9601900D927E
:1059F0008A95E1F7D8014C9111965C911197129616
:105A00006C9112971396CD90DC9014973091CF063D
:105A10007091D0068091D2069091D306009709F438
:105A20006BC17F3F19F43F3F09F466C1E090D10696
:105A3000EE2009F4C0C02091D406C816D90628F07B
:105A4000F601E81BF90BCF0104C0809590958C0DF1
:105A50009D1DFF24F394883C910578F0F12C207F64
:105A600009F0C6C07C2DD98AC88A89890E94382C41
:105A70008FEC96E00E94D02BB1C0822F807F09F07E
:105A800046C0751314C0341312C0611110C02F70BA
:105A900020612093D4060E94782C8FEC96E00E941F
:105AA000D02B8091D406D80115968C932EC0CD288A
:105AB00019F15F3F11F44F3FF9F0F62E61111CC050
:105AC00080919D0620919E0636E0821709F45AC007
:105AD00090E0389FF001399FF00D1124E156F94F05
